:100000003DC100000C949D0E0C94CE0E0C94FF0E7E
:100010000C94300F0C94610F0C94920F0C94C30F3E
:100020000C94F40F58C1000056C1000054C10000E8
:1000300052C1000050C100004EC100004CC1000080
:100040004AC1000048C1000046C1000044C1000090
:100050000C94A10B40C100003EC100000C9425107F
:100060003AC100000C9424130C944D1434C10000C8
:1000700032C1000030C100002EC100002CC10000C0
:100080002AC1000028C1000026C1000024C10000D0
:100090000C945D130C948C141EC100001CC1000054
:1000A0001AC1000018C1000016C1000014C10000F0
:1000B00012C1000010C100000EC100000CC1000000
:1000C0000AC1000008C1000006C100000C9496138C
:1000D0000C94CB1400C100000C94CF130C940A159F
:1000E000FAC000007B067E06C60613070E070E0741
:1000F0000E070E070E071A073007460748074B077B
:100100004D070E070E070E07500754079307A50764
:10011000BE07D107D307E607E807F807FC070E0775
:100120000E070E070E070E070E070E070E070E0727
:100130000E070E070E070E070E070E070E070E0717
:100140000E070E070E071E0822082C082E0830087E
:10015000320834083608380800002100240027003F
:100160002A002D00300033000101000004010701C6
:100170000A0100002200250028002B002E0031007B
:10018000340002010000050108010B0100002000FD
:100190002300260029002C002F003200000100005F
:1001A00003010601090105050505070508080808FA
:1001B000020202020A0A08080404040401010101FF
:1001C00001010101030303030303030304070707FA
:1001D0000C0C0C0C0C0C0C0C02020202060606069F
:1001E000060606060B0B0B0B0B0B0B0B010210206C
:1001F000200808102040102040800201020108045D
:1002000002010102040810204080804020100804F0
:100210000201800402018040201008040201080449
:10022000020101020408102040800102040810208D
:1002300040800000090A02080B0C0D0706030401A8
:1002400000000000000000000000000000000000AE
:10025000000000000000000000000000000011107D
:100260000F0000000000000000000000000000007F
:100270000000000000000000A301731611241FBE3F
:10028000CFEFD1E2DEBFCDBF00E00CBF12E0A0E0B7
:10029000B2E0E0E2F1E300E00BBF02C007900D9294
:1002A000A23DB107D9F71BBE16E0A2EDB2E001C036
:1002B0001D92AA30B107E1F712E0CCE7D2E004C00A
:1002C0002297FE010E948A18C837D107C9F70E94F9
:1002D00091170C948E1894CE2091EB028091EA0233
:1002E00090E0820F911D2091EC02820F911D2091D0
:1002F000ED02820F911D2091EE02820F911D9093CD
:10030000DB028093DC0208952091DF028091DE02FF
:1003100090E0820F911D2091E002820F911D2091AB
:10032000E102820F911D2091E202820F911D9093B4
:10033000D8028093D90208958091FD02882311F09C
:100340001092FD020895CF92EF920F9389E393E00C
:1003500066E148E12AE10CE15EE1E52E30E2C32EE0
:100360000E94E90D0F91EF90CF9008958091D702F0
:10037000882309F05FC08EE895E00E94FF15809306
:10038000D4029091D502933061F1943028F49130E9
:10039000C1F09230F0F408C0953099F1953048F1F1
:1003A000963009F047C039C08E3B41F4E091D60247
:1003B000F0E0E252FD4F808381E02AC01092D60225
:1003C0000895E091D602F0E0E252FD4F808382E092
:1003D0001FC0E091D602F0E0E252FD4F808383E03F
:1003E00017C0E091D602F0E0E252FD4F808384E036
:1003F0000FC0E091D602F0E0E252FD4F808385E02D
:1004000007C0E091D602F0E0E252FD4F808386E023
:100410008093D6028093D5020895E091D602F0E051
:10042000E252FD4F80831092D6021092D50281E0F5
:100430008093D70208958091F502813009F0D1C0F0
:100440009091F402953009F467C0963070F49230C0
:1004500091F1933020F4913009F0B9C019C0933074
:10046000E9F1943009F0B3C048C0983009F481C074
:10047000993038F4963009F45EC0973009F0A7C07F
:1004800069C0993009F484C09A3009F0A0C08FC0C7
:100490008EE78093F00280E58093F1028EE48093F2
:1004A000F2028DE08093F30280918E028093F40239
:1004B0009093F6028CC08EE78093F00280E58093E3
:1004C000F10286E48093F2028DE08093F302809142
:1004D00092028093F4021092F60279C08EE7809324
:1004E000F00281E78093F10280E58093F2028DE0D3
:1004F0008093F3028091960268C08EE78093F002A9
:1005000081E78093F1028CE48093F2028DE0809386
:10051000F30280919A0259C08EE78093F00281E73E
:100520008093F10286E58093F2028DE08093F302DE
:1005300080919E024AC08EE78093F00282E780930A
:10054000F1028AE58093F2028DE08093F3028091BC
:10055000A2023BC08EE78093F00282E78093F10213
:1005600089E58093F2028DE08093F3028091A602E8
:100570002CC08EE78093F00282E78093F10282E440
:100580008093F2028DE08093F3028091AA021DC055
:100590008EE78093F00282E78093F10286E48093F5
:1005A000F2028DE08093F3028091AE020EC08EE7DE
:1005B0008093F00283E58093F10282E58093F2025A
:1005C0008DE08093F3028091B2028093F4028CEC70
:1005D00095E060EF72E044E050E00E949E171092B8
:1005E000F5020895CF93DF93DB010D900020E9F72A
:1005F0001197A61BB70BEC01E881F9810280F3810A
:10060000E02DAD011995DF91CF9108951F931091C1
:10061000FC02113009F04CC085E090E00E94C61049
:100620001093FD0282E10E94F512892B59F585E0B5
:100630000E94F512019731F51092FD0223C084E06B
:1006400061E00E94C31289E190E00E94C61084E03C
:1006500060E00E94C3128EEE92E00E94C61080916C
:10066000FE029091FF02A0910003B0910103019757
:10067000A109B1098093FE029093FF02A0930003A9
:10068000B09301038091FE029091FF02A0910003BC
:10069000B09101030097A105B10521F08091FD0201
:1006A000882369F685E090E00E94C6101092FC0253
:1006B0001F9108958430D9F484E10E94F5120197C6
:1006C00009F049C0109218031092170381E361E00A
:1006D0000E94C3128FE260E00E94C3128DE28093F9
:1006E000200381E080931E038EE591E01FC08330DC
:1006F00011F584E10E94F512892B69F51092180317
:100700001092170381E360E00E94C31281E090E041
:100710000E94C6108FE261E00E94C3128DE28093B6
:10072000200381E080931E0380E991E090931C03F5
:1007300080931B030895882371F481E360E00E9495
:10074000C31281E090E00E94C6108FE260E00E9438
:10075000C31210921E0308958091170390911803FD
:100760000196909318038093170320911B033091F7
:100770001C038217930711F480E09CCF089580E05A
:1007800099CFDF92EF92FF920F931F9380912303F3
:10079000882309F486C180912403873009F4D4C0EA
:1007A0008830D0F4833009F457C0843050F481305D
:1007B000B9F12091270330912803823008F041C01D
:1007C00024C0853009F4AEC020912703309128035E
:1007D000863008F0AEC09DC08B3009F4EDC08C307F
:1007E00038F4893009F4C7C08A3008F0CDC0BBC0E6
:1007F0008D3009F425C18D3008F4EDC08E3009F438
:100800002FC18F3009F04DC13AC1232B09F049C1E6
:1008100083E090E0909328038093270381E00EC04B
:100820008091270390912803892B09F03AC183E036
:1008300090E0909328038093270382E08093240321
:1008400030C1232B09F02DC183E090E09093280361
:100850008093270383E0F2CF80910A0390910B03EA
:10086000A0910C03B0910D030097A105B10509F407
:1008700018C18EE493E061E070E050D7E82E8EE47A
:1008800093E062E070E04AD7D82E8EE493E063E014
:1008900070E044D790E0A0E0B0E020910A033091EE
:1008A0000B0340910C0350910D03821B930BA40B7F
:1008B000B50BFF2400E010E0102F0F2DFE2CEE24CE
:1008C000ED0CF11C011D111D102F0F2DFE2CEE241F
:1008D0008E0D9F1DA01FB11F8093FE029093FF02FB
:1008E000A0930003B093010384E190E09093280368
:1008F0008093270384E08093240389E393E061E0FD
:1009000042E00E94180D89E393E060E072E06ADE45
:10091000C8C0232B09F0C5C081E08093DA02809320
:10092000DD02ABC080912503813009F0BAC086E0BA
:100930008EC0232B09F0B5C083E090E0909328038C
:100940008093270387E07ACF80912D0390912E0327
:10095000A0912F03B09130030097A105B10509F0D4
:10096000A0C088E06BCF82E08093DA0281E08093C0
:10097000DD0289E063CF80912503823009F091C0C8
:1009800084E098DE8AE05ACF83E090E090932803D9
:10099000809327038091020390910303A0910403A5
:1009A000B09105038093FE029093FF02A093000391
:1009B000B09301038BE042CF8091270390912803ED
:1009C000892B09F06EC083E08093DA0281E0809386
:1009D000DD028CE033CF80912503833069F580916F
:1009E000060390910703A0910803B0910903809337
:1009F000FE029093FF02A0930003B093010383E0F3
:100A000090E090932803809327038DE08093240344
:100A10008091350390913603A0913703B09138034C
:100A20000197A109B1098093350390933603A093F0
:100A30003703B093380335C0843099F58FE007C091
:100A40008091270390912803892B59F58EE080939C
:100A5000240383E090E0909328038093270321C030
:100A60008091270390912803892BD9F481E080930A
:100A7000DA028093DD021092250385E0DFCE8091BB
:100A8000270390912803892B61F484E08093DA0294
:100A900081E08093DD0210922403109225031092CE
:100AA00023031F910F91FF90EF90DF9008951F9304
:100AB000182F8130F1F483E10E94F512892B09F09F
:100AC0004CC0109216031092150385E361E00E945A
:100AD000C31281E090E00E94C61083E360E00E94B0
:100AE000C31289E180931F0310931D0380EA90E0F5
:100AF0001FC0823011F583E10E94F512019769F55C
:100B0000109216031092150385E360E00E94C31251
:100B100081E090E00E94C61083E361E00E94C3126E
:100B200089E180931F0381E080931D0382ED90E0B3
:100B300090931A038093190310C0882371F485E3FE
:100B400060E00E94C31281E090E00E94C61083E33F
:100B500060E00E94C31210921D031F9108958091BE
:100B60000E03882319F0815080930E0380910F03A8
:100B7000882319F0815080930F038091FA02882313
:100B800019F081508093FA0280912603882319F08E
:100B900081508093260380912D0390912E03A09184
:100BA0002F03B09130030097A105B10559F00197CB
:100BB000A109B10980932D0390932E03A0932F03D5
:100BC000B09330038091310390913203A0913303AD
:100BD000B09134030097A105B10559F00197A1091F
:100BE000B1098093310390933203A0933303B09300
:100BF000340380911D03813051F480911F038823B9
:100C000021F0815080931F0302C080E050DF80916B
:100C10001E03813051F480912003882321F08150FC
:100C20008093200302C080E045DD8091D3028F5F76
:100C30008093D3028A30A1F41092D30280912703CB
:100C400090912803009729F00197909328038093AF
:100C500027038091F702882319F081508093F702CF
:100C600008958091150390911603019690931603B1
:100C7000809315032091190330911A03821793076B
:100C800011F480E014CF089580E011CF2F923F92AD
:100C90004F925F926F927F928F929F92AF92BF928C
:100CA000CF92DF92EF92FF920F931F938091D70222
:100CB000882309F4F4C128DB9091E3028091D802E3
:100CC000981709F0DCC19091E4028091D90298173D
:100CD00009F0D5C18091DF0290E0FC013197EA3341
:100CE000F10508F09BC0EE58FF4FEE0FFF1F059077
:100CF000F491E02D19941092F80290C082E10E94C4
:100D0000F512019709F08AC08091E00290E0A0E01E
:100D1000B0E0BA2FA92F982F88272091E102820FE7
:100D2000911DA11DB11DBA2FA92F982F88272091A1
:100D3000E202820F911DA11DB11D8093FE029093CE
:100D4000FF02A0930003B093010385E061E00E94DD
:100D5000C31281E08093FC0280911003882309F480
:100D60005DC08091110390911203A0911303B09183
:100D700014032091FE023091FF0240910003509134
:100D80000103821B930BA40BB50B40C08091E002C2
:100D900090E0A0E0B0E0BA2FA92F982F88272091EB
:100DA000E102820F911DA11DB11DBA2FA92F982F0D
:100DB00088272091E202820F911DA11DB11D809311
:100DC000FE029093FF02A0930003B093010385E01D
:100DD00060E00E94C31281E08093FC0280911003C6
:100DE0008823E1F08091110390911203A0911303E5
:100DF000B09114032091FE023091FF024091000354
:100E000050910103820F931FA41FB51F80931103FC
:100E100090931203A0931303B0931403EEEDF2E04A
:100E2000A4EEB2E030C181E08093E0021092E102D2
:100E300086E029C08EE493E061E070E04091E0023A
:100E400074D48EE493E062E070E04091E1026DD4EE
:100E50008EE493E063E070E04091E20266D4DECF7E
:100E60008EE493E061E070E059D48093E0028EE478
:100E700093E062E070E052D48093E1028EE493E06C
:100E800063E070E04BD48093E202C8CF81E001C000
:100E900082E00DDEC3CF84E001C083E00BDCBECF77
:100EA00081E080931003BACF609011037090120319
:100EB0008090130390901403140144245524622D50
:100EC00070E080E090E020E030E04FEF5FEF0E94C4
:100ED00047185B016C017B018C01E60CF71C081DB7
:100EE000191DEF2CF02E012F11278EE493E061E005
:100EF00070E0422D1AD48EE493E062E070E04E2D53
:100F000014D4A60C8EE493E063E070E04A2D0DD477
:100F100010921003109211031092120310921303F7
:100F2000109214037BCF9091E10280E02091E202C5
:100F3000820F911DA0E0B0E080930A0390930B0311
:100F4000A0930C03B0930D0369CF9091E10280E070
:100F50002091E202820F911DA0E0B0E08093020395
:100F600090930303A0930403B093050381E080935F
:100F700023038CEB92E0A0E0B0E031C09091E1025D
:100F800080E02091E202820F911DA0E0B0E080930A
:100F9000290390932A03A0932B03B0932C0381E0A1
:100FA00018C082E016C09091E10280E02091E20238
:100FB000820F911DA0E0B0E0809306039093070399
:100FC000A0930803B093090383E003C084E001C049
:100FD00085E08093250384EF91E0A0E0B0E080936A
:100FE000310390933203A0933303B093340316CFAD
:100FF00081E08093D20212CF8091E00290E0A0E0E5
:10100000B0E0BA2FA92F982F88272091E102820FF4
:10101000911DA11DB11DBA2FA92F982F88272091AE
:10102000E202820F911DA11DB11D809335039093A3
:101030003603A0933703B0933803F0CE81E080935A
:10104000F4021AC082E08093F40281E08093F502FA
:1010500084E18093F702E2CE83E00BC084E009C014
:1010600085E007C086E005C087E003C088E001C0D6
:1010700089E08093F40281E08093F502CFCE82E094
:101080008093DA02CBCE80818D93119282E0E33E91
:10109000F807C9F781E08093DD021092D7028091B2
:1010A000DD02882309F454C08091DA02823029F1EC
:1010B000833028F4882341F08130A9F519C08330AA
:1010C00009F1843081F523C084EB8093EA0280919A
:1010D000E5028093EB028091E6028093EC0280911E
:1010E000E7028093ED028091E8028093EE021BC03C
:1010F00084EB8093EA0280E20EC084EB8093EA02E4
:1011000081E209C084EB8093EA0282E204C084EBAE
:101110008093EA0283E28093EB021092EC02109239
:10112000ED021092EE02D8D88091DB028093EF029C
:101130008091DC028093F0028EE895E06AEE72E026
:1011400047E050E00E949E171092DA021092DD02F2
:101150001F910F91FF90EF90DF90CF90BF90AF90D5
:101160009F908F907F906F905F904F903F902F90C7
:1011700008951F938091F802882309F0DFC1109130
:10118000F902163009F4EBC0173090F4123009F46C
:1011900074C0133030F4112309F1113009F0CEC1BD
:1011A00033C0143009F49FC0153008F0AFC08BC0B5
:1011B0001A3009F441C11B3038F4183009F40DC15C
:1011C000193008F028C1EDC01C3009F471C11C3081
:1011D00008F44EC11D3009F0B1C186C189E393E026
:1011E00055D489E393E060E172E0FCD989E393E0B0
:1011F00061E042E01DD489E393E060E272E0F2D95D
:101200001092FB0281E05CC082E10E94F512892B02
:10121000C9F485E060E00E94C3121093FC0280EDE7
:1012200097E0A0E0B0E08093FE029093FF02A093CD
:101230000003B093010382E08093F9028091FB02E6
:10124000806218C085E061E00E94C31288EE9EE6CD
:10125000A3E0B0E08093FE029093FF02A09300030E
:10126000B09301031093FC0283E08093F902809114
:10127000FB0280618093FB0261C18091FC028823A4
:1012800009F05CC182E10E94F512019729F4809176
:10129000FB0280618093FB0285E061E00E94C31243
:1012A00088EE9EE6A3E0B0E08093FE029093FF02FA
:1012B000A0930003B093010381E08093FC0284E0DB
:1012C0008093F9023BC18091FC02882309F036C16A
:1012D00082E10E94F512892B91F78091FB028062D6
:1012E0008093FB02ECCF89E393E06AE042E0A0D375
:1012F0008091FB02803309F080C089E393E06DE2C6
:1013000072E070D985E08093F902AFC08091FA0253
:10131000882309F013C189E393E061E042E088D3B8
:1013200089E393E065E372E05DD983E10E94F51201
:10133000892B49F481E0BBDB8091FB0282608093C2
:10134000FB0286E08FC082E0B2DB8091FB0281600D
:101350008093FB0287E08093F90288E086C0809149
:10136000FA02882309F0EAC08091150390911603D0
:10137000892B29F08091FB0280648093FB0283E13A
:101380000E94F512019729F48091FB0281608093FD
:10139000FB0288E08093F90282E08093FA0287DB07
:1013A000CDC080911D03882309F0C8C0809115032A
:1013B00090911603892B29F08091FB028064809321
:1013C000FB0283E10E94F512892B29F48091FB0234
:1013D00082608093FB0288E073CF89E393E06AE048
:1013E00042E026D38091FB02833739F489E393E00E
:1013F0006DE272E0F7D889E063CF89E393E061E3BF
:1014000072E0F0D881E08093F8021092F90282E352
:101410008093260393C060ED77E080E090E05DD696
:1014200089E393E061E042E003D389E393E062E47F
:1014300072E0D8D88AE044CF84E10E94F512019787
:1014400049F484E037D98091FB0288608093FB02E5
:101450008BE008C083E02ED98091FB0284608093EA
:10146000FB028CE08093F90282E08093FA0266C06E
:101470008091FA02882309F061C08091170390914E
:101480001803892B29F08091FB0280688093FB026E
:1014900084E10E94F512892B29F48091FB0284607B
:1014A0008093FB028CE08093F90283E003D946C06D
:1014B00080911E03882309F041C080911703909109
:1014C0001803892B29F08091FB0280688093FB022E
:1014D00084E10E94F512019729F48091FB02886053
:1014E0008093FB028DE0ECCE8091FB028F3FA1F454
:1014F00089E393E0CBD289E393E06FE472E072D8A2
:1015000089E393E060E042E093D289E393E06FE502
:1015100072E068D885E00BC089E393E06AE042E0BE
:1015200087D289E393E061E372E05CD882E3809341
:1015300026031092F90281E08093F8021F9108952A
:101540008091D2028130E1F48091F602813049F439
:101550008093F50282E08093F40284E18093F702A5
:1015600008958091F702882359F48DE260E00E948B
:10157000C3121092D20268EE73E080E090E0ADC535
:101580000895F7DD83DBFDD80E941B023FD8D8DF2A
:1015900080912603882319F082E261E002C082E292
:1015A00060E0F1C70F931F9382E160E039D783E1D8
:1015B00060E036D784E160E033D782E060E030D786
:1015C00083E060E02DD78DE261E02AD785E361E01A
:1015D00027D783E361E024D781E361E021D78FE25D
:1015E00061E01ED786E061E01BD785E061E018D797
:1015F00084E061E015D787E060E012D78EE261E019
:101600000FD782E261E00CD78BE261E009D78DE26F
:1016100061E0B9D785E06CE971E042E050E011D3B8
:1016200084E064E476E042E050E00BD383E06FEBCB
:1016300073E043E050E005D381E061E376E042E00F
:1016400050E0FFD280E06CEA73E042E050E0F9D273
:101650000FE413E0C80140EA56E861E070E010D101
:10166000C8016FEA75E02FEF3FEF4FEF5FEF0ED14C
:101670008EE264EB70E0F6D58BE261E084D78EE811
:1016800095E040E855E260E070E00E9449158CEC7E
:1016900095E040E855E260E070E00E94491509E3FA
:1016A00013E0C80160E142E020E0F5D1C8016FE439
:1016B00072E00E94F202C80161E042E0B9D1C801C3
:1016C0006FE672E00E94F202C80168E042E0B0D129
:1016D0008AE690E09093220380932103C8016AE692
:1016E00070E04AE050E00E94371860ED77E080E05B
:1016F00090E0F3D4C80161E042E09AD1C80166E706
:1017000072E00E94F20260ED77E080E090E0E5D4C4
:1017100086E061E038D71F910F910895F999FECFC7
:1017200072BD61BDF89A80B50895F999FECF1FBAD0
:1017300072BD61BD40BD0FB6F894FA9AF99A0FBE1A
:1017400008951F920F920FB60F920BB60F921124AD
:101750002F933F934F935F936F937F938F939F93B9
:10176000AF93BF93EF93FF93E0915303F091540332
:101770001995FF91EF91BF91AF919F918F917F91BB
:101780006F915F914F913F912F910F900BBE0F90F2
:101790000FBE0F901F901895FC01A3E0440F551F3A
:1017A000661F771FAA95D1F7403080E0580781E087
:1017B000680780E0780714F481E010C033E0759585
:1017C0006795579547953A95D1F7403080E058078F
:1017D00081E0680780E078071CF482E0828339C0EA
:1017E00023E075956795579547952A95D1F7403031
:1017F00080E0580781E0680780E0780714F483E010
:10180000EDCF92E075956795579547959A95D1F7E5
:10181000403080E0580781E0680780E0780714F4E2
:1018200084E0DCCF82E075956795579547958A955A
:10183000D1F7403080E0580781E0680780E0780702
:1018400014F485E0CBCF85E082834FEF5FEF60E05B
:1018500070E08FB78383F89451834083509387005F
:101860004093860083818FBF80918100887F809321
:101870008100809181009281892B8093810008955D
:101880001092800020E12093810086CF0F931F9358
:10189000CF93DF93EC018B01121613061406150685
:1018A0001CF4BA01A90178DF1D830C8381E08093C9
:1018B0006F00809181009A81892B80938100DF9154
:1018C000CF911F910F9108950F931F938C01FC01ED
:1018D000868160E058D681E090E058D4F801868196
:1018E00061E051D681E090E051D4F801868160E05A
:1018F0004AD684E690E04AD41F910F910895CF9282
:10190000DF92EF92FF920F931F93CF93DF93D82E26
:10191000C92E282F392FC9018C01C0E0D0E0E62E56
:10192000FF24F801878161E07BD5B7010C2E02C04E
:10193000759567950A94E2F76170F801878123D65F
:1019400021960F5F1F4FC830D10559F78D2D9C2D63
:10195000BBDFDF91CF911F910F91FF90EF90DF9050
:10196000CF900895CF92DF92EF92FF920F931F9343
:10197000CF93DF93D82EC92E282F392FC9018C0180
:10198000C0E0D0E0E62EFF24F801878161E048D571
:10199000B7010C2E02C0759567950A94E2F7617045
:1019A000F8018781F0D521960F5F1F4FC430D10514
:1019B00059F78D2D9C2D88DFDF91CF911F910F91CD
:1019C000FF90EF90DF90CF9008951F93CF93DF9318
:1019D000EC01162F8C81642FD6D58D818F3F11F0AD
:1019E00060E0D1D58F8584FF04C0CE01612F87DFF1
:1019F0000CC0612F70E084E0759567958A95E1F7DA
:101A0000CE01B0DFCE01612FADDFDF91CF911F910D
:101A1000089541E0DADF81E090E0089540E0D5CF1D
:101A2000FC016089862F8460808B6C60CF01F6CFCB
:101A3000DF93CF93CDB7DEB728970FB6F894DEBF0C
:101A40000FBECDBF9C01FE013196AAEBB2E088E04B
:101A50000D9001928150E1F7F9018389481710F048
:101A6000482F4150E42FF0E0EE0FFF1FEC0FFD1F59
:101A70008181680F6068C901D1DF28960FB6F8949C
:101A8000DEBF0FBECDBFCF91DF91089561E0C6DF0D
:101A900080ED97E07BC3CF93DF93EC01423018F0E9
:101AA0008F8588608F874B8B1C8A222329F04130D9
:101AB00019F48F8584608F8780E593EC67D38C81E0
:101AC00060E061D58E8160E05ED58D818F3F11F041
:101AD00060E059D56F8564FD16C0CE0163E042DF3A
:101AE00084E991E153D3CE0163E03CDF84E991E1E5
:101AF0004DD3CE0163E036DF86E990E047D3CE01D7
:101B000062E030DF11C06062CE0188DF84E991E1DC
:101B10003DD36F856062CE0181DF86E990E036D3E8
:101B20006F856062CE017ADF6F856062CE0176DFFD
:101B300084E0888BCE0174DFCE01A8DF82E0898B40
:101B4000CE0166E06BDFDF91CF9108956F927F92B7
:101B50008F92AF92CF92EF920F931F93DF93CF9319
:101B6000CDB7DEB73C01162F842FF30144832583C4
:101B70000683E782C086A18682869E8593879F859D
:101B80009487988995879989968761E049D4F3016C
:101B900085818F3F11F061E043D4F301868161E0DC
:101BA0003FD4112319F0F301178603C080E1F3013C
:101BB0008787C30160E141E020E06DDFCF91DF91D5
:101BC0001F910F91EF90CF90AF908F907F906F907B
:101BD00008958F92AF92CF92EF920F931F93CF936E
:101BE000DF93DC01362F542F722F102FAE2C8C2C4C
:101BF00013961C921E92129786EB92E011969C937C
:101C00008E9300D00F92EDB7FEB73196CDB7DEB709
:101C10001982118212821382CD0161E0432F2FEFCE
:101C2000052FE72EC12E92DF0F900F900F900F908F
:101C3000DF91CF911F910F91EF90CF90AF908F9048
:101C40000895883008F078C0E82FF0E0EE0FFF1F0D
:101C5000EB5AFC4F718360838330D9F0843030F4C9
:101C6000813009F444C0823060F439C0853051F1CC
:101C70008530D8F0863009F446C0873009F05CC062
:101C80004FC0809169008C7F842B80936900E89A13
:101C9000089580916900440F551F440F551F837F9D
:101CA000842B80936900E99A08958091690074E01B
:101CB000440F551F7A95E1F78F7C842B8093690040
:101CC000EA9A08958091690066E0440F551F6A956D
:101CD000E1F78F73842B80936900EB9A08958091CC
:101CE0006A008C7F842B80936A00EC9A089580911F
:101CF0006A00440F551F440F551F837F842B809328
:101D00006A00ED9A089580916A0024E0440F551FFF
:101D10002A95E1F78F7C842B80936A00EE9A0895D0
:101D200080916A0096E0440F551F9A95E1F78F73F2
:101D3000842B80936A00EF9A08951F920F920FB63A
:101D40000F920BB60F9211242F933F934F935F93F3
:101D50006F937F938F939F93AF93BF93EF93FF9373
:101D60008091590390915A03892B29F0E0915903EE
:101D7000F0915A031995FF91EF91BF91AF919F9107
:101D80008F917F916F915F914F913F912F910F9024
:101D90000BBE0F900FBE0F901F9018951F920F92C1
:101DA0000FB60F920BB60F9211242F933F934F93C0
:101DB0005F936F937F938F939F93AF93BF93EF93B3
:101DC000FF9380915B0390915C03892B29F0E09154
:101DD0005B03F0915C031995FF91EF91BF91AF9177
:101DE0009F918F917F916F915F914F913F912F9133
:101DF0000F900BBE0F900FBE0F901F9018951F9263
:101E00000F920FB60F920BB60F9211242F933F93A0
:101E10004F935F936F937F938F939F93AF93BF93F2
:101E2000EF93FF9380915D0390915E03892B29F0DE
:101E3000E0915D03F0915E031995FF91EF91BF91E1
:101E4000AF919F918F917F916F915F914F913F9152
:101E50002F910F900BBE0F900FBE0F901F901895F3
:101E60001F920F920FB60F920BB60F9211242F9361
:101E70003F934F935F936F937F938F939F93AF9312
:101E8000BF93EF93FF9380915F0390916003892B41
:101E900029F0E0915F03F09160031995FF91EF91B4
:101EA000BF91AF919F918F917F916F915F914F9172
:101EB0003F912F910F900BBE0F900FBE0F901F9070
:101EC00018951F920F920FB60F920BB60F92112416
:101ED0002F933F934F935F936F937F938F939F9332
:101EE000AF93BF93EF93FF93809155039091560367
:101EF000892B29F0E0915503F09156031995FF9134
:101F0000EF91BF91AF919F918F917F916F915F9171
:101F10004F913F912F910F900BBE0F900FBE0F90DE
:101F20001F9018951F920F920FB60F920BB60F923B
:101F300011242F933F934F935F936F937F938F93CE
:101F40009F93AF93BF93EF93FF938091570390912B
:101F50005803892B29F0E0915703F0915803199504
:101F6000FF91EF91BF91AF919F918F917F916F9171
:101F70005F914F913F912F910F900BBE0F900FBE2D
:101F80000F901F9018951F920F920FB60F920BB6DD
:101F90000F9211242F933F934F935F936F937F93EF
:101FA0008F939F93AF93BF93EF93FF9380916103C0
:101FB00090916203892B29F0E0916103F091620313
:101FC0001995FF91EF91BF91AF919F918F917F9163
:101FD0006F915F914F913F912F910F900BBE0F909A
:101FE0000FBE0F901F9018951F920F920FB60F9271
:101FF0000BB60F9211242F933F934F935F936F93E0
:102000007F938F939F93AF93BF93EF93FF938091B1
:10201000630390916403892B29F0E0916303F091AD
:1020200064031995FF91EF91BF91AF919F918F91AB
:102030007F916F915F914F913F912F910F900BBEC8
:102040000F900FBE0F901F9018951F920F920FB612
:102050000F9211242F933F938F939F93AF93BF932E
:102060008091690390916A03A0916B03B0916C0316
:1020700030916D030196A11DB11D232F2D5F2D37CA
:1020800020F02D570196A11DB11D20936D03809363
:10209000690390936A03A0936B03B0936C038091E0
:1020A000650390916603A0916703B0916803019660
:1020B000A11DB11D8093650390936603A0936703F0
:1020C000B0936803BF91AF919F918F913F912F91F2
:1020D0000F900FBE0F901F9018959B01AC017FB71A
:1020E000F8948091650390916603A0916703B09185
:1020F000680366B5A89B05C06F3F19F00196A11D46
:10210000B11D7FBFBA2FA92F982F8827860F911D49
:10211000A11DB11D62E0880F991FAA1FBB1F6A9500
:10212000D1F7BC012DC0FFB7F89480916503909161
:102130006603A0916703B0916803E6B5A89B05C04C
:10214000EF3F19F00196A11DB11DFFBFBA2FA92FB6
:10215000982F88278E0F911DA11DB11DE2E0880FD9
:10216000991FAA1FBB1FEA95D1F7861B970B885EA4
:102170009340C8F2215030404040504068517C4F5D
:10218000211531054105510571F60895019739F082
:10219000880F991F880F991F02970197F1F70895EB
:1021A000789484B5826084BD84B5816084BD85B532
:1021B000826085BD85B5816085BDEEE6F0E08081F9
:1021C00081608083E1E8F0E010828081826080831A
:1021D000808181608083E0E8F0E08081816080839D
:1021E000E1EBF0E0808184608083E0EBF0E08081CF
:1021F00081608083E1E9F0E080818260808380817A
:1022000081608083E0E9F0E0808181608083E1EAA1
:10221000F0E0808182608083808181608083E0EA59
:10222000F0E0808181608083E1E2F1E08081826082
:102230008083808181608083E0E2F1E08081816041
:102240008083EAE7F0E0808184608083808182601F
:102250008083808181608083808180688083109208
:10226000C10008951F93CF93DF93182FEB0161E016
:10227000D7D0209709F4CAC0CF3FD10509F4C9C00F
:10228000E12FF0E0EE5CFD4F8491893009F466C0E7
:102290008A30B0F48430F1F1853040F4823059F165
:1022A000833070F5813009F0AEC020C0873009F46A
:1022B00043C0883008F048C0863009F0A4C034C05C
:1022C0008D3009F478C08E3038F48B3009F45AC060
:1022D0008C3008F066C04CC0803109F480C0813178
:1022E00009F487C08F3009F08EC06FC084B5806854
:1022F00084BDC7BD91C084B5806284BDC8BD8CC09B
:1023000080918000806880938000D0938900C09382
:10231000880082C080918000806280938000D0938A
:102320008B00C0938A0078C08091B0008068809351
:10233000B000C093B30070C08091B0008062809301
:10234000B000C093B40068C0809190008068809312
:102350009000D0939900C09398005EC08091900047
:10236000806280939000D0939B00C0939A0054C0E9
:1023700080919000886080939000D0939D00C093DE
:102380009C004AC08091A00080688093A00080914A
:10239000A0008F7B8093A000D093A900C093A800D9
:1023A0003BC08091A00080628093A000D093AB00DE
:1023B000C093AA0031C08091A00088608093A000E3
:1023C000D093AD00C093AC0027C0809120018068FD
:1023D00080932001D0932901C09328011DC08091D2
:1023E0002001806280932001D0932B01C0932A01A9
:1023F00013C080912001886080932001D0932D012B
:10240000C0932C0109C0C038D1051CF4812F60E0B5
:1024100002C0812F61E0B7D0DF91CF911F91089565
:10242000CF93DF93482F50E0CA0184519E4FFC01A7
:1024300034914A555E4FFA018491882369F190E006
:10244000880F991FFC01E85AFE4FA591B491FC0139
:10245000EE58FE4FC591D491662351F42FB7F894EE
:102460008C91932F909589238C93888189230BC01D
:10247000623061F42FB7F8948C91932F9095892353
:102480008C938881832B88832FBF06C09FB7F894D5
:102490008C91832B8C939FBFDF91CF9108958930CE
:1024A00009F449C08A30A0F4843051F1853040F4F9
:1024B000823079F1833000F5813009F063C026C0A5
:1024C000873079F1883098F5863009F05BC025C0F7
:1024D0008D3009F442C08E3028F48B30B1F18C304D
:1024E000C0F52DC0803109F442C0813109F445C0E6
:1024F0008F3009F047C037C0809180008F7703C0CC
:10250000809180008F7D80938000089584B58F77BF
:1025100002C084B58F7D84BD08958091B0008F770F
:1025200003C08091B0008F7D8093B00008958091AA
:1025300090008F7707C0809190008F7D03C08091BD
:102540009000877F8093900008958091A0008F77FE
:1025500007C08091A0008F7D03C08091A000877F7D
:102560008093A0000895809120018F7703C080910F
:1025700020018F7D80932001089580912001877F25
:10258000809320010895FF920F931F93F62E482FFA
:1025900050E0CA018E5C9D4FFC012491CA01845118
:1025A0009E4FFC0114914A555E4FFA01049100239D
:1025B000C1F0222311F0822F72DFE02FF0E0EE0F46
:1025C000FF1FEE58FE4FA591B4919FB7F894FF20DE
:1025D00021F48C911095812302C08C91812B8C93D6
:1025E0009FBF1F910F91FF9008950F931F93482F46
:1025F00050E0CA018E5C9D4FFC012491CA018451B8
:102600009E4FFC0104914A555E4FFA01149111232B
:1026100019F420E030E014C0222311F0822F3FDFB4
:10262000812F90E0880F991F84579E4FFC01A59140
:10263000B4918C9120E030E0802311F021E030E073
:10264000C9011F910F9108951F920F920FB60F921B
:102650000BB60F9211242F933F934F938F939F9319
:10266000EF93FF934091C6002091AE033091AF03EA
:102670002F5F3F4F2F7330708091B0039091B10363
:102680002817390759F0E091AE03F091AF03E259F2
:10269000FC4F40833093AF032093AE03FF91EF9143
:1026A0009F918F914F913F912F910F900BBE0F9063
:1026B0000FBE0F901F90189508951F920F920FB69E
:1026C0000F920BB60F9211242F933F934F938F933A
:1026D0009F93EF93FF934091CE0020913604309169
:1026E00037042F5F3F4F2F733070809138049091E3
:1026F00039042817390759F0E0913604F09137046E
:10270000EA50FC4F40833093370420933604FF9106
:10271000EF919F918F914F913F912F910F900BBE11
:102720000F900FBE0F901F90189508951F920F9253
:102730000FB60F920BB60F9211242F933F934F9326
:102740008F939F93EF93FF934091D6002091BE0407
:102750003091BF042F5F3F4F2F7330708091C004C2
:102760009091C1042817390759F0E091BE04F09107
:10277000BF04E258FB4F40833093BF042093BE0454
:10278000FF91EF919F918F914F913F912F910F90DA
:102790000BBE0F900FBE0F901F90189508951F92BB
:1027A0000F920FB60F920BB60F9211242F933F93F7
:1027B0004F938F939F93EF93FF9340913601209116
:1027C0004605309147052F5F3F4F2F733070809142
:1027D0004805909149052817390759F0E0914605B9
:1027E000F0914705EA5FFA4F408330934705209305
:1027F0004605FF91EF919F918F914F913F912F91BE
:102800000F900BBE0F900FBE0F901F901895E09188
:102810009A05F0919B05E05CFF4F81919191208199
:102820003181821B930B8F739070892B11F00E9462
:10283000B601E091B905F091BA05E05CFF4F8191D6
:10284000919120813181821B930B8F739070892B22
:1028500009F032DFE091D805F091D905E05CFF4F37
:102860008191919120813181821B930B8F739070A4
:10287000892B09F05ADFE091F705F091F805E05C4B
:10288000FF4F8191919120813181821B930B8F7336
:102890009070892B09F082CF08951F920F920FB686
:1028A0000F920BB60F9211242F933F938F939F9308
:1028B000EF93FF932091F2033091F3038091F4039F
:1028C0009091F5032817390731F48091C1008F7D6D
:1028D0008093C10014C0E091F403F091F503EE542D
:1028E000FC4F20818091F4039091F50301968F7342
:1028F00090709093F5038093F4032093C600FF91AA
:10290000EF919F918F913F912F910F900BBE0F9060
:102910000FBE0F901F9018951F920F920FB60F9237
:102920000BB60F9211242F933F938F939F93EF93A6
:10293000FF9320917A0430917B0480917C049091E4
:102940007D042817390731F48091C9008F7D809369
:10295000C90014C0E0917C04F0917D04E65CFB4F5B
:10296000208180917C0490917D0401968F739070FA
:1029700090937D0480937C042093CE00FF91EF918F
:102980009F918F913F912F910F900BBE0F900FBE93
:102990000F901F9018951F920F920FB60F920BB6C3
:1029A0000F9211242F933F938F939F93EF93FF9355
:1029B0002091020530910305809104059091050551
:1029C0002817390731F48091D1008F7D8093D10091
:1029D00014C0E0910405F0910505EE53FB4F2081F2
:1029E000809104059091050501968F7390709093E6
:1029F0000505809304052093D600FF91EF919F91E8
:102A00008F913F912F910F900BBE0F900FBE0F90A3
:102A10001F9018951F920F920FB60F920BB60F9240
:102A200011242F933F938F939F93EF93FF932091C4
:102A30008A0530918B0580918C0590918D05281722
:102A4000390731F4809131018F7D8093310114C0B9
:102A5000E0918C05F0918D05E65BFA4F2081809125
:102A60008C0590918D0501968F73907090938D05D4
:102A700080938C0520933601FF91EF919F918F9168
:102A80003F912F910F900BBE0F900FBE0F901F9094
:102A90001895AF92BF92DF92EF92FF920F931F9320
:102AA000CF93DF93EC017A018B01DD24403081EE7E
:102AB000580780E0680780E0780711F0DD24D394A0
:102AC00091E0A92EB12CEC89FD89DD2069F0C501CA
:102AD0000E8C02C0880F991F0A94E2F7808360E091
:102AE00079E08DE390E005C0108260E874E88EE143
:102AF00090E0A8019701EAD2215030404040504078
:102B0000569547953795279580E12030380720F076
:102B1000DD2011F0DD24D7CFE889F9893083EA89F7
:102B2000FB892083EE89FF89408121E030E0C901E3
:102B30000A8C02C0880F991F0A94E2F7482B408341
:102B4000EE89FF894081C9010B8C02C0880F991F53
:102B50000A94E2F7482B4083EE89FF894081C9013E
:102B60000C8C02C0880F991F0A94E2F7482B40830F
:102B7000EE89FF8980810D8C02C0220F331F0A94D9
:102B8000E2F7209528232083DF91CF911F910F91A9
:102B9000FF90EF90DF90BF90AF900895DC011C96FE
:102BA000ED91FC911D97E05CFF4F21913191808167
:102BB0009181281B390B2F733070C9010895DC01F6
:102BC0001C96ED91FC911D97E05CFF4F20813181B7
:102BD000E054F040DF01AE5BBF4F8D919C911197A7
:102BE0002817390719F42FEF3FEF07C08D919C91FB
:102BF000E80FF91F8081282F30E0C9010895DC011A
:102C00001C96ED91FC911D97E05CFF4F2081318176
:102C1000E054F040DF01AE5BBF4F8D919C91119766
:102C20002817390719F42FEF3FEF10C08D919C91B1
:102C30001197E80FF91F20818D919C9111970196B2
:102C40008F73907011969C938E9330E0C901089514
:102C5000FC0186859785DC01A05CBF4FFC01EE5B23
:102C6000FF4F2D913C911197808191812817390751
:102C7000C1F70895CF93DF93EC01EE85FF85E05C0B
:102C8000FF4F20813181E054F0402F5F3F4F2F7381
:102C90003070DF01AE5BBF4F8D919C91119728176B
:102CA0003907D1F3E05CFF4F80819181E054F0401F
:102CB000E80FF91F6083EE85FF85E05CFF4F3183ED
:102CC0002083EE89FF89208181E090E00D8C02C095
:102CD000880F991F0A94E2F7282B208381E090E067
:102CE000DF91CF9108951F93109291051092900556
:102CF00028EE33E040E050E02093920530939305B6
:102D0000409394055093950566EC72E070938F059F
:102D100060938E058EE693E090939B0580939A05D1
:102D200082EB93E090939D0580939C0585EC90E069
:102D300090939F0580939E0584EC90E09093A1056D
:102D40008093A00580EC90E09093A3058093A2056A
:102D500081EC90E09093A5058093A40586EC90E02B
:102D60009093A7058093A60514E01093A805B3E0FF
:102D7000B093A905A7E0A093AA05F5E0F093AB05F1
:102D8000E1E0E093AC051092B0051092AF052093FE
:102D9000B1053093B2054093B3055093B4057093D9
:102DA000AE056093AD0586EF93E09093BA058093EE
:102DB000B9058AE394E09093BC058093BB058DEC44
:102DC00090E09093BE058093BD058CEC90E09093CD
:102DD000C0058093BF0588EC90E09093C205809376
:102DE000C10589EC90E09093C4058093C3058EECF7
:102DF00090E09093C6058093C5051093C705B093E6
:102E0000C805A093C905F093CA05E093CB051092BD
:102E1000CF051092CE052093D0053093D105409375
:102E2000D2055093D3057093CD056093CC058EE702
:102E300094E09093D9058093D80582EC94E0909328
:102E4000DB058093DA0585ED90E09093DD058093B6
:102E5000DC0584ED90E09093DF058093DE0580ED46
:102E600090E09093E1058093E00581ED90E09093F0
:102E7000E3058093E20586ED90E09093E50580936D
:102E8000E4051093E605B093E705A093E805F093F9
:102E9000E905E093EA051092EE051092ED05209306
:102EA000EF053093F0054093F1055093F2057093D0
:102EB000EC056093EB0586E095E09093F805809330
:102EC000F7058AE495E09093FA058093F90585E388
:102ED00091E09093FC058093FB0584E391E090934F
:102EE000FE058093FD0580E391E0909300068093BA
:102EF000FF0581E391E0909302068093010686E34B
:102F000091E0909304068093030610930506B09316
:102F10000606A0930706F0930806E09309061F91A2
:102F20000895CF93DF933CD90E94D20AC7E0D4E141
:102F30000E94C10A2097E1F36ADCFACFCF92DF92B8
:102F4000EF92FF920F931F93CF93DF937C016B015E
:102F50008A01C0E0D0E00FC0D6016D916D01D701AC
:102F6000ED91FC910190F081E02DC7011995C80FFA
:102F7000D91F015010400115110571F7CE01DF91E5
:102F8000CF911F910F91FF90EF90DF90CF90089518
:102F90004F925F927F928F929F92AF92BF92CF9209
:102FA000DF92EF92FF920F931F93DF93CF93CDB7F2
:102FB000DEB7A1970FB6F894DEBF0FBECDBF2C01D0
:102FC000742ECB01223008F42AE019A231E2C32E7C
:102FD000D12CCC0EDD1E822E9924AA24BB24672D71
:102FE000752FA501940172D079018A01C801B7013A
:102FF000A50194014CD0472D461B0894C108D10867
:103000004A3014F4405D01C0495CF6014083E1148C
:10301000F1040105110521F07E2C5F2DC801DFCFE1
:10302000C201B6010E94F202A1960FB6F894DEBF6B
:103030000FBECDBFCF91DF911F910F91FF90EF9009
:10304000DF90CF90BF90AF909F908F907F905F90D8
:103050004F900895DC012115310541F4ED91FC916B
:103060000190F081E02D642F1995089591CFEF9292
:10307000FF920F931F939A017B0100E010E0B801CB
:10308000A701E8DF1F910F91FF90EF900895629FD5
:10309000D001739FF001829FE00DF11D649FE00D50
:1030A000F11D929FF00D839FF00D749FF00D659FB1
:1030B000F00D9927729FB00DE11DF91F639FB00DB0
:1030C000E11DF91FBD01CF0111240895A1E21A2EBF
:1030D000AA1BBB1BFD010DC0AA1FBB1FEE1FFF1FBC
:1030E000A217B307E407F50720F0A21BB30BE40B0C
:1030F000F50B661F771F881F991F1A9469F7609553
:103100007095809590959B01AC01BD01CF0108950C
:10311000EE0FFF1F0590F491E02D1994F894FFCF66
:10312000576169742050726F6A6563746F72200012
:103130002053797374656D204F6E2054657374004D
:1031400054657374205357312052756E004F4B20D5
:103150000045525200546573742053573220527503
:103160006E0054657374205357332052756E0020DF
:10317000526F626F7420466163746F727920002011
:1031800053797374656D205265616479202000560F
:10319000657220467700202033444C5072696E746B
:1031A000657220202020202020007E504E0D7E5071
:1031B000460D7E71500D7E714C0D7E71560D7E72E6
:1031C0005A0D7E72590D7E72420D7E72460D7E53EF
:1031D000520D00000000090D9E1700004000140071
:1031E0005400000000003A169E17CE15FF15DF159B
:0231F00028169F
:00000001FF
